:100000000C942A000C9454000C9470000C948C00F6
:100010000C94C9000C94C9000C94C9000C94C9003C
:100020000C94C9000C94C9000C94C9000C94C9002C
:100030000C94C9000C94C9000C94C9000C94C9001C
:100040000C94C9000C94C9000C94C9000C94C9000C
:100050000C94C90011241FBECFE5D8E0DEBFCDBF90
:10006000E4E5F0E040E017C0B591A5913591259108
:10007000059107FD0CC095918591EF01F92FE82FAF
:1000800005900D92A217B307D9F7FE0104C01D9287
:10009000A217B307E1F7E435F40731F70E94A8008F
:0800A0000C94BE00F894FFCFA0
:1000A8001F920F920FB60F9211242F938F939F9345
:1000B80082B3806282BB2FEF89E698E121508040AD
:1000C8009040E1F700C000009F918F912F910F9011
:0800D8000FBE0F901F90189558
:1000E0001F920F920FB60F9211242F938F939F930D
:1000F00082B3806482BB2FEF89E698E12150804073
:100100009040E1F700C000009F918F912F910F90D8
:080110000FBE0F901F9018951F
:100118001F920F920FB60F9211242F938F939F93D4
:1001280082B3806882BB2FEF89E698E12150804036
:100138009040E1F700C000009F918F912F910F90A0
:080148000FBE0F901F901895E7
:1001500081B3806E81BB8FB780688FBF8BB7806E95
:100160008BBF85B78C6085BF85B7816085BF84B73D
:0C0170008F7B84BF82B38F7182BBFCCFF9
:10017C00EC010E94CE000E94CD00CE010E94CF0067
:06018C00CE010E94CB0031
:040192000C940000C9
:040196000E94520071
:02019A000895C6
:02019C000895C4
:02019E000895C2
:00000001FF
